:1000000000000220C5480000ED4800004D0F000030
:10001000F1480000F3480000F5480000000000002F
:10002000000000000000000000000000F748000091
:10003000F948000000000000FB480000FD480000F7
:1000400031290000FF480000212E0000E1330000AC
:10005000F1330000FF480000792C0000652F0000FC
:10006000DD310000ED310000FF480000FF480000D6
:10007000FF480000FF480000FF480000FF48000064
:10008000FF480000390A0000FF480000FF48000058
:10009000D50A0000FF480000FF480000FF480000AC
:1000A000FF480000FF480000FF480000FF48000034
:1000B000BD2E0000FF48000000000000000000000E
:1000C000FF480000FF480000FF4800002931000001
:1000D000FF480000FF480000FF480000FF48000004
:1000E000FF480000000000000000000000000000C9
:1000F00000000000FF48000000000000FF48000072
:1001000000000000000000000000000000000000EF
:1001100000000000000000000000000000000000DF
:1001200000000000000000000000000000000000CF
:1001300000000000000000000000000000000000BF
:1001400000000000000000000000000000000000AF
:10015000000000000000000000000000000000009F
:10016000000000000000000000000000000000008F
:10017000000000000000000000000000000000007F
:10018000000000000000000000000000000000006F
:10019000000000000000000000000000000000005F
:1001A000000000000000000000000000000000004F
:1001B000000000000000000000000000000000003F
:1001C000000000000000000000000000000000002F
:1001D000000000000000000000000000000000001F
:1001E000000000000000000000000000000000000F
:1001F00000000000000000000000000000000000FF
:1002000010B5054C237833B9044B13B10448AFF350
:1002100000800123237010BDF009002000000000C1
:100220007CD5000008B5034B1BB103490348AFF36D
:10023000008008BD00000000F40900207CD500000B
:10024000A3F5803A704700BF174B002B08BF134B34
:100250009D46FFF7F5FF00218B460F461348144AD1
:10026000121A04F053FC0E4B002B00D098470D4B94
:10027000002B00D098470020002104000D000D48FD
:10028000002802D00C4806F015FD04F051FB2000B8
:10029000290000F067F804F033FB00BF00000800FD
:1002A000000000000000000000000220F009002013
:1002B000A8130020B56C00009D7F0000292837B5E9
:1002C00004460D4623D9164940F2CD1000F0DAFE5F
:1002D000144A04F01F0303F5E073002142F82310D1
:1002E00002F0AAFB104B1A88ADF804209B788DF819
:1002F00006302A4601A9204602F0D6FB054660B921
:100300002046012102F05AFC284603B030BD1F28C8
:10031000DED803464FF0A042DDE74FF0FF30F4E7B0
:10032000C4BD00000003005007BE0000292810B51E
:1003300004460DD9094940F2CD1000F0A3FE084B48
:1003400004F01F04D3F81005E04000F0010010BDD8
:100350001F28F4D84FF0A043F4E700BFC4BD00004D
:100360000003005070B52C4B2C4D0FCB86B002AE65
:1003700086E80F001A222023CDE9022328484FF0F7
:10038000CC73002404938DF8144004F00FFC314624
:10039000284602F01FFAD5E904018DE8030095E82C
:1003A0000F0000F069F800F0F1FC1E4D1E4E2B68A6
:1003B000A3422ADC1D481E4C1B4D00F03BF81B4895
:1003C000002100F0B3F804F0ABFAC0B2612809D103
:1003D00000F0F0F8207000F0F1F860702868FFF786
:1003E000A5FFA070207804F0F5FB607804F0F2FB24
:1003F000A07804F0EFFBE07804F0ECFB207904F047
:10040000E9FB607904F0E6FBDDE756F82400002103
:10041000FFF754FF0134CAE71CBE000030BE0000E5
:100420000ABE000004000020000000202CBE0000D6
:100430000C0A002010B50D4B02681A6000214A20FA
:1004400000F02EF804460146094804F0AFFBBA2C30
:1004500009D1012222214A2000F04CF8054804F07D
:10046000A5FB002010BD4FF0FF30FBE75C13002020
:1004700048BE000056BE000084B030B503AC84E82E
:100480000F0003AD0FCD054C0FC495E8030084E8C1
:100490000300BDE8304004B0704700BF6413002083
:1004A00000B58BB00DF10F030693012398408DF832
:1004B0000F108DF81D0000210DF1170218438DF863
:1004C0001C308DF81E3008928DF824308DF82500F0
:1004D0000091022306AA06488DF817108DF8261001
:1004E00002F0E4F99DF817000BB05DF804FB00BFC3
:1004F000641300207FB503AB8DF80C10049300212A
:10050000022340008DF80D208DF814308DF8150071
:100510000091012304AA04488DF8161002F0C6F9D0
:1005200007B05DF804FB00BF64130020F8B50C466B
:1005300010B94FF0FF30F8BD124D03682B60002159
:100540002020FFF7ADFF2028F3D10F4A01212846D4
:1005500000F064FC0D4B1F684FF400464FF4FA7036
:10056000002100234FF47A72E6FB07010BF0A2FA98
:1005700000220146286800F063FC054B00201C7037
:10058000D9E700BF5C130020190600000C00002012
:100590000800002010B503212020FFF781FF04216F
:1005A00004462020FFF77CFFC0F38D0343EA84005C
:1005B00080B210BD03212020FFF772BF052120204B
:1005C000FFF76EBF13B5FFF7F5FF0446FFF7F6FF21
:1005D000A4B2002364F30F0380B260F31F431846F4
:1005E00002B010BD10B505212020FFF759FF0621EC
:1005F00004462020FFF754FFC0F38D0343EA840034
:1006000080B210BD13B5FFF7C5FF0446FFF7EAFF40
:1006100044EA004002B010BD10B5074B074C1B78F0
:1006200033B1FFF7EFFF2080C0F30F40608010BDB3
:10063000FFF7C8FFF7E700BF08000020640A0020AA
:1006400010B50368292B044604D9074940F2CD10A0
:1006500000F018FD23681F2B83BF03F01F0303481E
:1006600023604FF0A04010BDC4BD00000003005047
:1006700007B5019001A8FFF7E3FF019A012393401A
:10068000C0F80C3503B05DF804FB07B5019001A874
:10069000FFF7D6FF019A01239340C0F8083503B055
:1006A0005DF804FB38B5054D044645F001054FF4EF
:1006B0007A40A847013CFAD138BD00BF00BF000016
:1006C0002DE9F3413D4F3E4E0524022517F8013B2D
:1006D000019301A8FFF7B4FF019B03F5E07340F815
:1006E000235001A816F8013B0193FFF7A9FF019BD6
:1006F00003F5E073013C40F82350E7D1152501A82C
:100700000195FFF79DFF019B03F5E07340F203267F
:1007100040F82360132401A80194FFF791FF019B87
:1007200003F5E07340F2031840F823601C2601A88B
:100730000196FFF785FF019B03F5E0731E2740F844
:10074000238001A80197FFF77BFF019B03F5E0736E
:1007500040F823802846FFF798FF2046FFF795FFD3
:100760003046FFF785FF3846FFF782FF1C20FFF772
:100770007FFF1E20FFF77CFF4FF4FA70FFF792FF18
:100780001C20FFF782FF1E20FFF77FFF3220FFF7BC
:1007900089FF1C20FFF76CFF1E20FFF769FF4FF455
:1007A000FA70FFF77FFF1C20FFF76FFF1E20FFF797
:1007B0006CFFFA20FFF776FFD8E700BFF4BE000019
:1007C000EFBE00007FB506460D46144672B601F036
:1007D000C9FB01F00DFA0028FBD1134804F0E6F93B
:1007E00044F201039E420AD044F202039E4215D114
:1007F000228861680D4804F0D9F9FFF761FFA1680C
:100800000391084601F0D8FE236801950093024643
:1008100063680399064804F0C9F9EEE729460548DC
:1008200004F0C4F9E9E700BF77BE000090BE000005
:10083000ABBE0000D5BE000008B5FFF741FF0000C9
:1008400038B50E4B1B680021986804F0CDF94FF4C1
:100850000041002001F072F918B1094A142100F09A
:10086000BFF8084D01F092F80A2445F001054FF455
:100870007A40A847013CFAD138BD00BF30000020C3
:1008800006BF000070BF00007047000007B5044BB2
:100890000093044A402301F017F803B05DF804FB0D
:1008A00005090000690A002030B5114D0FCD89B04F
:1008B0006C460FC495E80F0084E80F000622282339
:1008C000CDE900234FF0FF33CDE9023309480A4B4D
:1008D00006930022694600F0A7FD18B1074A462199
:1008E00000F07EF8064B00221A7009B030BD00BF40
:1008F000E0BF00001000002000509D0076BF000007
:10090000680A002038B50E4B0E4D002018700E48B6
:1009100004782D5DD2B21C4675B1043003F0F6FDAB
:1009200018B10A4A562100F05BF8094B1A7812B147
:100930002378002BFBD038BD0C3003F0A3FAEFE78F
:10094000A90A00207C1300201000002076BF0000C0
:10095000680A002008B50848084A0378D35C33B118
:10096000043003F05DFDBDE80840FFF79DBF0C308B
:1009700003F028FAF7E700BF100000207C130020E6
:10098000FFF792BF10B50848D4B20378074AD35C8A
:10099000224623B1043003F0B9FD204610BD0C30CF
:1009A00003F070FAF9E700BF100000207C1300206C
:1009B00008B50948094A0378D35C012243B10430E1
:1009C00003F01EFE00280CBF01204FF0FF3008BDD1
:1009D0000C3003F0C7FAF5E7100000207C1300206C
:1009E00000B583B002900091019244F2010071467B
:1009F0006A46FFF7E7FE03B000BD0000094A5378DE
:100A000091780133DBB2994208BF002311789942F3
:100A10001FBF03705078182303FB002014BF04305D
:100A200000207047AC0A0020024B4FF43C6043F0BA
:100A30000103184710C00000F8B51F491F4B0025DF
:100A4000C1F84051C1F84451C1F84851C1F84C5166
:100A5000C1F80051C1F804511B684BB3D1F80445EB
:100A600017490968641A24F07F442F461A68A24285
:100A700009D8A41A15441A7CDE691AB1D3E90520F5
:100A80001F749047AEB90F4A0F4B11781B788B42F9
:100A900005D10133DBB2022B08BF0023137012789B
:100AA0000A4B43F822500A4B4FF48012C3F800213E
:100AB000F8BD3346DAE700BF00100140CC0B002040
:100AC000C80B0020C50B0020C40B0020BC0B00206D
:100AD00000E100E02DE9F04FA14AA249137809781E
:100AE000A14D994285B03CD00133DBB2022B08BF47
:100AF000002313709D4912789D4B0F6853F8220014
:100B00003B1823F07F4300220B602B6816461446E7
:100B1000944613B942B12B6006E0196881420ED9A0
:100B200002B12B60091A196001272B68DFF848A26F
:100B300001934FF00008BEB9DFF844B262E0401AFA
:100B40000C44D968D3F81CE0C3F800C031B13A199D
:100B500022F07F42C3E90121DE611E467346012275
:100B6000D7E700263746E0E73446F6697F4A6368F0
:100B70001268DFF810C2A068991A21F07F41614520
:100B800000F2A88001442160012222742A68002317
:100B9000C4E90133E361002A40F0A5802C60CAE774
:100BA0009BF802105A1CD2B291428BF8002004BF6D
:100BB00000228BF80020182202FB03B32A6819795F
:100BC0009C68022977D0032900F08180012919D17E
:100BD000207CB8B9D96861601A69A2605A69E2607C
:100BE0009B69A361634B1B78002B18BF01466160B2
:100BF000BCE78C4200F091808946C9690029F8D190
:100C0000002323749BF800309BF801209A42C7D13F
:100C10002B68B8F1000F04D1019A9A4201D1002F3C
:100C200043D0002B41D0D3F800A0534D4F4BD5F803
:100C300004751C68DFF850813E1B98F8003026F0E0
:100C40007F4603369BB94FF48033C5F84433C5F86B
:100C500004334A4B4FF40032C3F880211A604FF03E
:100C60000109C5F80090FFF7DFFE88F80090B24553
:100C70002CBF5444A41924F07F44C5F84045D5F84E
:100C80000435DB1B23F07F43E41B033324F07F4454
:100C9000A3420AD9D5F80435C5F84035FFF7C4FE9C
:100CA000364B4FF40032C3F80021324B00221A7049
:100CB00005B0BDE8F08F114691469FE71174D269E7
:100CC0000123002AFAD1002B9CD02A609AE7002346
:100CD0001946F6E7D31A23F07F43834234BFC31A81
:100CE0000023236050E721681368994213D8591AEA
:100CF0001160E26152E7091AD8691A4638B1034611
:100D000018688842F7D3401A1860184613462160C5
:100D1000E061DC610FE71346F2E74C4511D1D3697E
:100D20002B6073B9DFF844E00120CDE90212CAF864
:100D30000800CEF800300F4B1870FFF775FEDDE9A4
:100D400002120B68C969C9F81C1011B10868034484
:100D50000B602B68934218BF4FF0010850E700BFAB
:100D6000C40B0020C50B0020CC0B0020C80B0020BA
:100D7000BC0B0020B80B00200010014000E100E097
:100D8000AC0A0020FEFF7F00B90B0020F8B51B4E17
:100D90004FF40033C6F88030BFF34F8FBFF36F8F2F
:100DA000174D184F4FF480330124C5F84833C5F868
:100DB00008336C60FFF738FEAC6000243C60FFF73E
:100DC00033FE114B1C70114B0B221C809A70104B80
:100DD0001C60104B1C70104B4FF480121C70E023F1
:100DE000C6F8802186F814333260C5F8084586F8C5
:100DF0001133D5F804353B602046F8BD00E100E032
:100E000000100140C80B0020B90B0020AC0A0020E4
:100E1000CC0B0020C40B0020C50B0020074B9B7897
:100E20004BB132B128B10368187C20B959745A61AA
:100E30007047072070470820704700BFAC0A0020A9
:100E40002DE9F3411D4FBB7804460D4616469BB372
:100E500090B31B4B4A1F9A422CD8436963B3437C1F
:100E60000020012B0CBF88464FF0000800F04EF820
:100E70000DF10700FFF7C2FDD0B101230370114B44
:100E80004460D3F80435C0E90486C0E902359DF812
:100E900007307B700024002000F048F824B90A4B8A
:100EA0004FF48012C3F80021204602B0BDE8F08163
:100EB0000424F0E70724F7E70824F5E7AC0A00204C
:100EC000FAFFFF000010014000E100E072B6024AA4
:100ED0001368013313607047D00B0020034A136876
:100EE000013B136003B962B6704700BFD00B00200E
:100EF000EFF30583C3F308032BB9EFF31480C0436A
:100F000000F00100704701207047000008B5FFF7AE
:100F1000EFFF012803D00449432000F0B3F8BDE8F7
:100F20000840FFF7D3BF00BF16C0000008B5FFF7A9
:100F3000DFFF012803D00449512000F0A3F8BDE8E9
:100F40000840FFF7CBBF00BF16C000001EF0040F23
:100F50001CBFEFF309800AE0EFF308800549064A59
:100F6000884201D8904202D88D464FF00000034BD2
:100F7000184700000000022000E00120810F00005F
:100F80002DE9F347054600F0EDFF00F031FE0028A3
:100F9000FBD12F4C2F48304B241AE40824049F6ABD
:100FA00044F00104002D4ED0AA692C49204600F0DF
:100FB0008BFFEB680193AB68294900932046D5E984
:100FC000002300F096FFEB6900932649D5E904233E
:100FD000204600F082FF204BDB6A980703D52249A8
:100FE000204600F06DFFDFF89490DFF894A0002613
:100FF0004FF0010808FA06F33B4206D059F82620C4
:101000001AB15146204600F05FFF01361A2EF1D189
:10101000390605D5104B15495A6B204600F054FF90
:101020003A0405D50C4B12499A6B204600F04CFF50
:10103000104B1B68DB0700D500BE2846FFF7FCFB02
:1010400002B0BDE8F0870C49204600F039FFC2E746
:10105000E0D5000080D5000000ED00E06BC000008E
:1010600080C00000B5C0000010C100005FC10000DA
:101070007FC10000F0ED00E0DDC000005CC60000B4
:1010800054C1000007B5ADF8000001916A46002187
:1010900044F20200FFF796FB03B05DF804FB10B5C5
:1010A000034653E8000F0A4643E8002494F0000F7B
:1010B000F7D110BD10B5034653E8002F42EA0100F6
:1010C00043E8000494F0000FF6D110BD10B50346BC
:1010D00053E8000F00EA010243E8002494F0000FF7
:1010E000F6D110BD10B5034653E8002F02EB010006
:1010F00043E8000494F0000FF6D110BD10B503468C
:1011000053E8002FA2EB010043E8000494F0000F25
:10111000F6D110BD0121FFF7CDBF0021FFF7D6BFEB
:1011200010B50446002834D003681BB91A49FF20C3
:10113000FFF7A8FF636823B917494FF48070FFF7E2
:10114000A1FFA36823B9144940F20110FFF79AFFE9
:10115000E36823B910494FF48170FFF793FF238AA6
:1011600023B90D4940F20310FFF78CFFD4E90123A6
:1011700021689B1ADBB20A60013BDBB2FF2B2268BD
:1011800002D10020107110BD1168481C10600B7056
:10119000F2E70E20F7E700BFC4C6000038B50446EA
:1011A00020B912494FF49270FFF76CFF0020FFF74F
:1011B000ADFE2268616813688B4215D9591E116013
:1011C00013F8015C228AE36802FB05352268A368F4
:1011D00011685B1A1179DBB2994200D213710020B9
:1011E000FFF7A4FE284638BD0025F8E7C4C6000076
:1011F00038B50C46054620B90E4940F24710FFF7B6
:1012000041FF24B90B494FF4A470FFF73BFF0020C6
:10121000FFF77CFE2A681368591C1160E968641A9C
:10122000298AB4FBF1F41C70BDE838400020FFF7B8
:101230007DBE00BFC4C600001FB503788DF8003026
:101240008388ADF8043083688DF80630C3688DF864
:101250000730036902934369054A0393054B6846C7
:1012600053F8213052F82110984705B05DF804FB7F
:10127000D40B0020DC0B002010B50368292B04469A
:1012800004D9074940F2CD10FFF7FCFE23681F2B5D
:1012900083BF03F01F03034823604FF0A04010BD3D
:1012A000C4BD00000003005007B5019001A8FFF77E
:1012B000E3FF019A01239340C0F8083503B05DF8BD
:1012C00004FB0000024B4FF4807043F00103184709
:1012D00020C700002DE9F743154690F80080354AF5
:1012E00042F82850344A42F828304B7B06460C46D8
:1012F00083B30B684FF0A04703F5E07340F20C6234
:1013000047F823204B6803F5E0734FF0010947F8D5
:1013100023200868FFF7C8FF6068FFF7C5FF236850
:1013200003F5E07340F20D6247F82320636803F58C
:10133000E07347F82320FFF7C5FF00276368019398
:1013400001A8FFF799FF019AD0F81035D340DB07C9
:101350000CD5FFB9002D194A434608BF2A4621463D
:10136000301D02F04DF803B0BDE8F083236801930F
:1013700001A8FFF781FF019B09FA03F3C0F80C35C0
:10138000FFF7A0FF01372068FFF78EFFFFF79AFFF6
:10139000092FD3D16368019301A8FFF76DFF019A6C
:1013A00001239340C0F80C35FFF78CFF6068FFF70E
:1013B0007BFFCFE7DC0B0020D40B002039120000AC
:1013C0001FB503788DF800304368019383688DF86A
:1013D0000830C368054A0393054B684653F821302B
:1013E00052F82110984705B05DF804FBE40B00208B
:1013F000EC0B00201FB503788DF800304368019393
:1014000083688DF80830C368054A0393054B684626
:1014100053F8213052F82110984705B05DF804FBCD
:10142000E40B0020EC0B0020F0B5194B90F800C045
:10143000DFF86CE043F82C20164B16460A6943F897
:101440002C204B7F0EF80C300C4607460FCC89B091
:101450006D460FC594E80F0085E80F003B78CDF886
:1014600010C01EF803304BB1002E0B4A694608BF6E
:101470003246381D02F0D8FE09B0F0BD002E074AF2
:10148000694608BF324607F10C0002F0A9FBF3E7FA
:10149000EC0B0020E40B0020C1130000F51300004A
:1014A0007C13002010B5044618B906493120FFF717
:1014B000E9FDA2682AB16369216820699847002381
:1014C000A36010BD26C700000EB433B5059D0446C9
:1014D00018B911494220FFF7D5FD63691BB90E49C0
:1014E0004320FFF7CFFD23681BB90B494420FFF7CA
:1014F000C9FD63681BB908494520FFF7C3FD35B135
:1015000006AB01AA29462046019300F071F802B00B
:10151000BDE8304003B0704726C70000826830B491
:101520000468551C8560A154D0E901329A4202D367
:1015300030BCFFF7B7BF30BC704700002DE9F84F53
:101540009846DDE90A43154682460F460A464FF0A3
:101550000109AA420FD2C14538BFC14613F0010BA1
:1015600001D16CB900240126B8F1010F1BD908F193
:10157000FF386E43F8E709F10109B2FBF5F2E8E73D
:101580009B070ED5B8F1000F0CBF30262026A145D1
:10159000E9D2013C31465046FFF7C0FF002CF6D19E
:1015A000E0E72026F3E7B7FBF6F39D42E1D9DFF849
:1015B0003C80B7FBF6F3504618F8031006FB137790
:1015C000FFF7ACFF3346AB42B6FBF5F6F1D2BBF109
:1015D000000F02D00CB1A14501D3BDE8F88F202146
:1015E0005046013CFFF79AFFF4E700BFB9C700007F
:1015F0002DE9F74F88461746054620B9B14940F214
:101600005220FFF73FFD6B6923B9AE494FF41570C7
:10161000FFF738FD2B6823B9AA4940F25520FFF7A0
:1016200031FD6B6823B9A74940F25620FFF72AFD28
:10163000B8F1000F00F0428118F8011B49B92B7B6B
:10164000002B00F03B81284603B0BDE8F04FFFF7C8
:1016500029BF252940F0B780002698F800302D2BAF
:10166000424608F1010823D0302B24D02B2B25D063
:1016700000242A2B02F1010123D13B681A1D3A6094
:101680001B680A461C4413782E2B26D101324FF0DA
:10169000000A104610F8011BA1F1300CBCF1090F33
:1016A0001DD80A2303FB0A13A3F1300A0246F0E710
:1016B00046F00106D1E746F00206CEE746F0040602
:1016C000CBE711F8013CA3F130000928DBD80A224E
:1016D00002FB0434303C0A46CBE74FF0000A12F814
:1016E000011B01F0FB0068289046F8D0782909D842
:1016F0006F290CD8632962D022D8252963D05829B4
:1017000000F0888098F80030002B95D197E7703969
:101710000829F7D801A353F821F000BF971800005B
:101720000517000005170000251800000517000028
:101730000318000005170000051700001518000029
:10174000642901D06929DDD13A68111D3960D2F8C8
:10175000009089EAE972A2EBE9724FF0010B092AC5
:1017600035DCD34538BFD3462CB1B9F1000F01DBCE
:10177000720700D5013CB30702D5BAF1000F03D0C0
:10178000F00701D44CBB0024B9F1000F2DDAC9F1E8
:1017900000092D212846FFF7C1FE06F00302022AA8
:1017A00004D1BAF1000F01D11CBB0024CDE90046E1
:1017B00053460A2249462846FFF7C0FEA2E73B6887
:1017C0001A1D3A6019782846FFF7A8FE9AE70A23FF
:1017D0000BF1010BB2FBF3F2C1E7A345D4D22021F8
:1017E0002846013CFFF79AFECCE77107D5D52B219F
:1017F000D0E7A345DAD230212846013CFFF78EFE20
:10180000D2E73968CDE900460A1D3A6053460A22FC
:101810000968D0E739680A1D3A60CDE900465346A9
:101820001022F5E73B681A1D3A6016F00106D3F85E
:10183000009028D1B9F1000F03D0484603F0C0FA58
:101840000646B44200D904BB09F1FF3919F8011F5B
:1018500000293FF457AF2846FFF760FEF6E7284619
:101860000136FFF75BFE19F806100029F7D1A642F2
:10187000BFF448AF002C3FF445AF20212846013C7F
:10188000FFF74CFEF3E70026EDE720212846013C58
:10189000FFF744FED5E73B681A1D3A603021284621
:1018A0001C68FFF73BFE78212846FFF737FE002231
:1018B0000823CDE90032214610227CE703B0BDE8C1
:1018C000F08F00BF6CC70000F0B595B01D461646FE
:1018D00008460C4600F019FD1A9B0D93CDE90865EA
:1018E00000252B46082205A920460A958DF82C5084
:1018F0000C9500F031FD079B0293069B03939DF826
:1019000014308DF8115003F00302012A1DD1BDF8E7
:101910001420059DC3F3C203C2F383168DF8103063
:10192000B20008230EA9204600F016FDC5F3952548
:1019300008AB0093324602AB0EA9284600F088FBA4
:10194000204600F0E6FC15B0F0BD022AF8D1BDF843
:101950001650C3F3C203C5F389158DF8103008275C
:10196000082D2E4628BF08263B4632460EA92046A3
:1019700000F0F2FCAD1B08AB02AA31460EA83744BA
:1019800000F0CAFB002DEBD1DAE7000008B5FEF746
:10199000F7FF0748042100F0BBFA002803DA0549E5
:1019A0004820FFF76FFB044B01225A7108BD00BFAE
:1019B00018D60000C9C7000024000020037813F0E7
:1019C000040216D003F00303012B03D0022B09D02D
:1019D000012070470A6800880232C0F38310024475
:1019E0000A60F5E70B684288023303EB92130B6041
:1019F000EEE71046704700002DE9F04F044687B02F
:101A0000861C00200F461546FFF780FA49480168FA
:101A10003960D0E90132134401335B1A824600F287
:101A20001C4700F5836900F21448B3421BD3002021
:101A3000002D7AD004F00F039B0143F0050363F3FC
:101A40000F00DAF80020DAF80830134003331644A8
:101A50004AF823000020CAF80060FFF767FA012067
:101A600007B0BDE8F08F01213846FFF73BFB484641
:101A7000FFF750FB4046FFF74DFBDAF80400DAF8B9
:101A800008B0029000EA0B0003300AEB800002A9C4
:101A9000FFF794FF029B0246F8B90BEA03010AEB39
:101AA000810103F1020CC8680390013303EA0B0BB8
:101AB0000AEB8B0B00F003000128DBF80C10CDF8CB
:101AC00008C02AD002280BD01B4901924FF4BF70E6
:101AD000FFF7D8FA019A93460CE00BEA0300D3E72C
:101AE000BDF80E30C3F3891303334FEA114B0CEBEF
:101AF000930302934046FFF710FB10B1029BCAF814
:101B0000043059463846FFF7EDFADAE90123134469
:101B1000DAF8002001339B1A87E7BDF80C30C3F3D5
:101B200083134FEA114B6344E3E7A40544F0060036
:101B300087E700BFC40C002039C800000B4B0C48DD
:101B4000FF2210B59A600022C3F81824C3E90022CE
:101B5000C3F81424012283F8202400F08FFB0446EC
:101B600010B9044800F0FCFC204610BDC40C002055
:101B7000F0D50000A8C8000030B50A4C71B10A4A7F
:101B80000A49121BD20800239A4201D1002030BD1D
:101B900031F82350854202D00133F5E7034654F86B
:101BA0003300F4E780D50000F0D50000F0090020F4
:101BB000094B013903EBC000032909D8DFE801F024
:101BC0000A02040604207047007970474079704784
:101BD000002070470220704780D50000034BD3E9F6
:101BE0000030C31A58425841704700BFC40C00204F
:101BF0002DE9F04385B0FFF7F1FF0646002840F0DD
:101C0000F5807B4DC5F81804BFF34F8F6B68AC6847
:101C100000932340033305EB83006946FFF7CEFEB4
:101C2000009B18B1D5F81824002A5FD004EA0302FB
:101C3000991C013305EB8202234005EB8303D26834
:101C4000DB68029302F00303022B0192009160D142
:101C5000BDF806306748C3F38917502FB84628BF30
:101C60004FF0500868F38F1308F10801ADF8063003
:101C700000F01CFB0646002800F0A38000F045FBA6
:101C80000023082201A9304600F052FB009924EA03
:101C900001020132B8EB820F4FEA820332D95FFAB8
:101CA00088F85BB32140DCB2A8EB040803315FFA8B
:101CB00088F9A046504C05EB810108234246304686
:101CC00000F036FB34B108F108034A46214630469D
:101CD00000F02EFB009B033703EB97070097D5F826
:101CE0001834002B49D1D5F8104459E02A689A429B
:101CF0008FD86A60304605B0BDE8F0833E491C4687
:101D00009946DAE70C40E11C0823424605EB8101C5
:101D1000DDE7012B55D1BDF804303648C3F38311FC
:101D2000062928BF062161F3891302318900ADF825
:101D3000043000F0BBFA0646002842D000F0E5FA75
:101D40000023082201A9304600F0F2FA0027BDF86E
:101D50000420C2F38312BB00974203F10803BED2F2
:101D600000994A1C21400331009205EB81010422B5
:101D7000304600F0DDFA0137E9E7304600F0C9FAF5
:101D8000FFF72CFF80F00100C6B2B3E7E3685B7990
:101D900023B1236831461B6820469847E3681C68D6
:101DA000002CF3D1304600F0B4FA2046FFF7AEF82D
:101DB000D5F818340BB9009B6B600020FFF7B6F81C
:101DC000DEE7D5F8104454B90C4B0D480D49C01A44
:101DD000C008000440F0020000F072F8D0E7236869
:101DE00020469B689847E3681C68ECE7002681E77B
:101DF000C40C0020F0D50000D00C002080D50000DD
:101E0000D0D5000090C800002DE9F74F274D0446BB
:101E10000F46914601A901221846D5F808A0984618
:101E2000FFF7EAFD78B3019E0023B01C434503EBA6
:101E3000000132D100211E48FFF731F94FEA144961
:101E400080F3100B1B4B1C4A9B1AB9EBD30F04D326
:101E50001A4940F2A310FFF715F9731C03EA0A03AD
:101E6000E40005EB830304F0380449EA0B4006EA7A
:101E70000A0644F00104D860033644EA881343EAB2
:101E8000872345F8263095F820341BB1FFF7B0FEC4
:101E90000028FBD103B0BDE8F08F0AEA010105EB91
:101EA000810159F82320CA600133BFE7C40C002028
:101EB000E0100020F0D5000080D5000039C80000F7
:101EC00000231A46FFF7A0BF07B50123019201AA1C
:101ED000FFF79AFF03B05DF804FB1FB5CDE90123BE
:101EE000069B039301AA0323FFF78EFF05B05DF85D
:101EF00004FB1FB5CDE90023069B0293079B0393C8
:101F00006A460423FFF780FF05B05DF804FB00007C
:101F100030B5134AD2F8104403460020214649B98F
:101F2000DC682071D2F8104454B9C2F81034DB6870
:101F3000196030BDC9680D7985420AD00968EEE79D
:101F4000E468D96824680C60D2F81024D268136061
:101F5000EFE701300A28E1D14FF0FF30E9E700BF99
:101F6000C40C002038B5094A0123D2F8104482F885
:101F700020341D4604B938BDE3685D7123682046EE
:101F80005B689847E3681C68F4E700BFC40C002056
:101F900007B503460846197A052911D05B7A2BB19B
:101FA000094A0A490190FFF78FFA01980849019000
:101FB000FFF78AFA019803B05DF804EBFFF772BAF5
:101FC000002AF8D0F2E700BFB4C80000B9C800008A
:101FD000D9C8000030B5C38885B004460D4633B17A
:101FE000144A00921449154A2846FFF76DFA217ADF
:101FF00005291DD0637A4BB1A088FFF7D9FD104B9E
:10200000104953F820202846FFF75EFA227A0E4B3B
:10201000A08853F8222003920021FFF7ADFD039A18
:102020000A490346284605B0BDE83040FFF74CBAE0
:1020300005B030BDB4C80000C4C80000BCC8000072
:1020400040C90000B9C8000064C90000DCC8000035
:102050002DE9F04385B01F460C9D002395F80C90A8
:102060002B7306460C46904629463846FFF7B2FFCA
:10207000B8F1060F09D8DFE808F00412181F28335A
:10208000400031462846FFF71FFA0022294638460D
:10209000FFF77EFF85F80C9005B0BDE8F08322685D
:1020A00031462846FFF710FAEFE7D4E9002331461E
:1020B0002846FFF709FAE8E7A36800933146D4E918
:1020C00000232846FFF700FADFE7E3680193A368DF
:1020D00000933146D4E900232846FFF7F5F9D4E709
:1020E00023690293E3680193A36800933146D4E91E
:1020F00000232846FFF7E8F9C7E7636903932369DC
:102100000293E3680193A36800933146D4E9002366
:102110002846FFF7D9F9B8E708292DE9F84F804696
:102120000E4617461C463BD8002593F80C901D73AD
:1021300019461046FFF74EFFDFF88CA0DFF88CB091
:10214000AE422FD918F8052059462046FFF7BCF9B2
:102150000135082DF4D11949194DDFF874A0204636
:10216000FFF7B2F94FF0000B5E4522D918F80B20AB
:102170007E2A1CD8134BD15C11F0970F08BF2E227A
:1021800051462046FFF7A0F90BF1010BBBF1080FF8
:10219000EAD1012221463846FFF7FAFE84F80C9076
:1021A000BDE8F88F51462046FFF78EF9D0E72E2282
:1021B000E6E729462046FFF787F9E5E7F0C8000083
:1021C000EEC8000081D10000ECC80000E6C80000A5
:1021D000F2C800002DE9F74F99469DF83030009382
:1021E00088469346064618B92349B620FEF74AFFAB
:1021F000F18872794A43043A4A4505D81E4901924A
:10220000C420FEF73FFF019ADBF80070B6F806A085
:1022100007EB0901914209F1040488BFA2EB090709
:10222000B4FBFAF5CBF800700AFB154445B9AAEBEC
:10223000040BBB4528BFBB462FB903B0BDE8F08FE8
:102240003668013DF2E7009B043408EB0500344496
:102250005A466BB12146A7EB0B0702F0BDFBBA450E
:102260005D443668D3464FF0000428BFBB46E3E721
:1022700001462046EFE700BF78C90000FEF750BFD7
:10228000F8B546790146721E0546002393422D6833
:1022900003D30024A64202D8F8BD0133F6E70F6845
:1022A0002846FEF7A5FF01343946F3E72DE9F84348
:1022B000CD1C068A0746FEF771FF043E35440446EE
:1022C000B5FBF6F5F0B14FF48073EDB28380C680B4
:1022D000013D076081464FF00008A84512D23846FC
:1022E000FEF75CFF064648B163790133637108F17C
:1022F0000108C9F8000007608146EEE72046FFF7B5
:10230000BFFF34462046BDE8F88301210430FEF7C4
:10231000E9BE10B5012104460430FEF7EFFE10F0CF
:10232000FF0F04D12046BDE81040FFF7A9BF10BD44
:102330001FB5144603920022009203AAFFF74AFF3A
:10234000039BA34203D00349F620FEF79BFE04B093
:1023500010BD00BF78C900001FB5144603920122CA
:10236000009203AAFFF736FF039BA34204D0034960
:102370004FF48070FEF786FE04B010BD78C90000EF
:10238000026813685268934291BFD01A8068013086
:10239000801888BFC01A704738B50C46054618B972
:1023A00004498320FEF76EFEAB68A3428CBF601C1D
:1023B000002038BDD1C9000038B5044618B9074916
:1023C0009820FEF75FFE236820461D685968FFF7D6
:1023D000E3FF431B5842584138BD00BFD1C900003C
:1023E0002DE9F0410D46044618B92C49A320FEF70B
:1023F00049FE1DB92949A420FEF744FE0020FEF73E
:1024000085FD2046FFF7D8FF074610B1237C002B3F
:102410003DD1D4F800802046D8F80460D8F80410E4
:10242000FFF7BAFFC8F804002FB1276820463968C3
:10243000FFF7B2FF3860E2686068531E072B20D8B0
:10244000DFE803F004101F141F1F1F182B7883559B
:102450002046FFF795FF23689A68824200D2986071
:10246000002415E02B8820F81630F1E72B6840F89F
:102470002630EDE7D5E9002300EBC600C0E90023D4
:10248000E6E7294606FB020002F0A6FAE0E704248C
:102490000020FEF74BFD2046BDE8F081D1C90000C9
:1024A00010B5044620B9064940F22B20FEF7EAFD9C
:1024B000236818685B68C31A5842584110BD00BFB2
:1024C000D1C900002DE9F0410C469046054618B9E7
:1024D0002249E720FEF7D6FD1CB92049E820FEF787
:1024E000D1FD0020FEF712FD2846FFF7D9FF002896
:1024F00032D12F683E68B8F1000F04D13968284600
:10250000FFF74AFF3860EA686968531E072B1DD839
:10251000DFE803F0040D1C111C1C1C158B5D2370DF
:1025200000240020FEF702FD2046BDE8F08131F8CE
:1025300016302380F4E751F826302360F0E701EBF2
:10254000C601D1E90023C4E90023E9E706FB021133
:10255000204602F041FAE3E70524E2E7D1C9000092
:102560008268002393608268136182685361826885
:10257000D3608268536082681360704710B50D495C
:10258000A1F58C72914201D800200FE08C1AE30F64
:1025900003EBE4035B1002EBC30452F833308342D5
:1025A00005D802D204F10802ECE7606810BD2146AC
:1025B000E8E700BFDCCE000008B5FFF7DFFF024B05
:1025C000002808BF184608BDB0CD0000C0B20023E7
:1025D00048700B707047000070B50D46044618B97E
:1025E00008497120FEF74EFD23681A6812683AB157
:1025F0001A681B6851681B682846BDE87040184778
:1026000070BD00BFDCCE0000F0B5044687B018B93D
:102610002D493720FEF736FD21680A7E0B689E683B
:1026200006EBC20E5FFA82FC56F832609EF8053067
:102630009EF80470D0009EF8062012F0010F4FEAB9
:10264000530503F0010337D0B3BBD1F800E09EF887
:102650000CE00CF1010CF4452EDAD1F800C0DCF8E6
:1026600008C0083084449CF805C0B5EB5C0F23D14A
:102670000B689B681A1853F800C05379087E92F8CB
:1026800004E0927903F001030130C3F10303520126
:10269000C0B2DBB202F02002087601A904F10C00FE
:1026A000CDE9027ECDE9046C8DF804308DF805503B
:1026B00000F0ECFF07B0F0BD52014FF0000C02F04B
:1026C0002002E646E9E700BFDCCE00002DE9F84F26
:1026D0000E46044618B927498720FEF7D3FC256823
:1026E000DFF894904FF000080020FEF70FFC16B9B9
:1026F00023681B6843B9606800222946FFF7E2FEA1
:1027000088B3C5F8008000260020FEF70FFC7EB3DA
:102710002B681B694BBB2F1D68691022394602F0DC
:102720002BF9A8B104F10C0B584604F1080A00F08B
:1027300053FF23464A4639465046FEF7CBFD18B1B3
:102740000C49B420FEF79EFC584600F0FBFE6F617A
:1027500085F818802046FFF757FF014640B1204614
:10276000FFF73AFFC0E70126CEE72B681F69D3E7E2
:10277000BDE8F88FDCCE00007D27000038B50C46A0
:10278000054618B91249D220FEF77CFC23681B6865
:102790001BB90F49D820FEF775FC287868B9226864
:1027A000137E11680133097BDBB2994206D9137697
:1027B0002046FFF729FF08B938BD0320014620460F
:1027C000FFF70AFF20460121BDE83840FFF77EBF32
:1027D000DCCE0000F8B50D46044620B919494FF487
:1027E0008470FEF74FFC636823B9164940F2091064
:1027F000FEF748FC63689B6823B912494FF4857063
:10280000FEF740FC25B90F4940F20B10FEF73AFCE9
:102810000D4A2346294604F10800FEF75BFD0746F2
:1028200070B904F10C0000F08DFE23681F6095E87C
:102830000F002668043686E80F0023681A1D5A61C7
:102840003846F8BDDCCE00007D27000037B50546D0
:10285000019120B9144940F22D10FEF713FC019BA1
:1028600023B911494FF49770FEF70CFC019B9B684C
:1028700023B90D4940F22F10FEF704FC019B1B7B8E
:1028800023B909494FF49870FEF7FCFB686801A969
:10289000FFF7A6FD044618B901462846FFF716FFC4
:1028A000204603B030BD00BFDCCE00002DE9F04172
:1028B00086B00F46DDF8308016461D46044620B926
:1028C000194940F24F10FEF7DDFB26B916494FF4C7
:1028D000A870FEF7D7FB25B9134940F25110FEF757
:1028E000D1FB0023ADF8003001238DF8003001A9A1
:1028F0000E4B01932046CDF808D003968DF810506A
:102900000597FFF7A3FF30B106B0BDE8F081B8F13D
:10291000000F00D0C0479DF80030002BF7D19DF884
:102920000100C0B2F0E700BFDCCE0000CD25000002
:1029300007B5134B1A6862B1002018601B6800933A
:10294000009B4FF080430122C3F808230D4B1B6806
:1029500098470D4B1A6882B100221A601B680193D8
:10296000019B4FF080430222C3F80823054B1B68EC
:10297000012003B05DF804EB184703B05DF804FBD9
:1029800000010040801100200401004000F180405F
:1029900000F5C040002382B0036003680193019BEF
:1029A00002B07047054B4FF0FF32072843F8202054
:1029B00084BFC01880F85220704700BF88110020E3
:1029C00010B50368292B044604D9074940F2CD10FD
:1029D000FEF758FB23681F2B83BF03F01F03034838
:1029E00023604FF0A04010BDC4BD000000030050A4
:1029F00013B5019001A80C46FFF7E2FF019B00EB25
:102A00008300D0F8003723F44033C0F80037D0F803
:102A1000003743EA0443C0F8003702B010BD00009D
:102A20004FF0A043D3F810350360024BD3F81035B4
:102A3000436070470003005010B5174C94F86430A1
:102A400043BB04F130032A21FF22013911F0FF01B9
:102A500003F8012BF9D1C8B2FFF7A4FF01310C290B
:102A6000F9D1062200210D4802F050F80C4BE0226B
:102A700083F8062340221A604FF4BE70FFF786FFEA
:102A8000084B4FF00042C3F80423012384F864305C
:102A9000002010BD0820FCE788110020E61100206E
:102AA00000E100E00060004029282DE9F3410546DF
:102AB0000F46904604D93E4940F20720FEF7E2FA5D
:102AC0003C4E731993F93030002B6FDABB78C3F3A7
:102AD0004003002B0BBF082400240C220822944240
:102AE00003D1042002B0BDE8F08156F82410013172
:102AF00043D1721946F8248082F8304013B9331953
:102B000083F85250BB785A0717D4D90737D501A894
:102B10000195FFF755FF019B00EB8300D0F80037CC
:102B200023F00203C0F800372349EA0805F0070044
:102B300001238340885C03438B54BB783A7813F0BD
:102B400002032AD0A40004F1804404F5C0442D02FD
:102B5000D4F8103523F44F3323F44073C4F8103500
:102B60001204D4F8103505F47C5502F440321543B4
:102B70001D43C4F810550020B4E70134AFE701A8A5
:102B800097F801800195FFF71BFF019B03F5E073A8
:102B90004FEA880240F82320C6E7083C344494F802
:102BA0005A5045EA821284F85A20E4E7082099E74F
:102BB00036CF000088110020E61100202928F7B543
:102BC00004460E4604D9294940F23720FEF75AFA46
:102BD000274D2B1993F93030002B04DA23494FF499
:102BE0000E70FEF74FFA2F1997F93020072A1ADDD9
:102BF0002A4492F852309B09032B0FD101A801946B
:102C0000FFF7DEFE019BD0F81015D94001F001015D
:102C100002312046FFF7ECFE03B0F0BD012B0CBFE4
:102C200002210321F5E7D3B2072BF5D8930003F176
:102C3000804303F5C04302F14000D3F81015800033
:102C400041F00101C3F8101580B2FFF79FFE002E7E
:102C5000E2D097F9303055F82330002BDCD0012337
:102C600003FA02F2034BC3F80423D5E736CF000082
:102C700088110020006000402DE9F04F00248BB047
:102C8000CDE90244624D4FF48072012102F180438C
:102C900003F5C04390B21B68012B06D1D5F804336D
:102CA0000B4202D0FFF772FE0C430432B2F5907F64
:102CB0004FEA4101EAD1574B1B68012B08D14FF471
:102CC000BE70FFF763FE02A844F00044FFF7A8FEC1
:102CD00014F0FF0F1AD0504F00250126344210D0B7
:102CE000AB0003F1804303F5C043D3F81005D3F8DC
:102CF000101557F8253023B1C1F30141C0F3052069
:102D000098470135082D4FEA4606E7D1002C7BDABB
:102D100004AF002304937B604FF0FF33CDE906330B
:102D2000DFF8F4903D4B009300263546009A12F9E7
:102D3000013B00925A1C51D0C3F3C2000121DAB208
:102D400003F03F0B03F0070301FA03F40AAB191871
:102D500011F8103C234241D04FEA921A09EB0B02C2
:102D600092F9302059F82280B8F1000F09D1BAF158
:102D7000030F33D117F800C04CEA040C07F800C069
:102D800002E0BAF1030FF5D008A80191CDF820B008
:102D9000FFF716FE089B019903F5E07C11F8201C53
:102DA00050F82C002142C0F3014006D0022815D172
:102DB000BAF1030F0CD1514605E003280ED1BAF148
:102DC000030F05D102215846FFF712FE0135EDB27F
:102DD000B8F1000F02D051465846C0470136042EC4
:102DE000A4D18DB108A8FFF71BFE029B089A9A4256
:102DF000099B02D103998B4206D002920393049A55
:102E0000059B069207938DE70BB0BDE8F08F00BFDE
:102E1000006000407C61004088110020E211002029
:102E200010B5054C22681AB904495120FEF72AF959
:102E30002368BDE810401847F01100208BCF000038
:102E400038B50D4628B90C497720FEF71BF900204C
:102E500038BD0A4B9842FAD10020FEF757F8084BCC
:102E60001C7914B901221D601A710020FEF75EF86A
:102E7000002CECD01120EBE78BCF000000200040AD
:102E8000F011002018B906499B20FEF7FBB8054B4E
:102E9000984201BF044B00221A601A71704700BFAC
:102EA0008BCF000000200040F01100200023435091
:102EB00082B043580193019B02B0704710B521487E
:102EC000D0F810315BB14FF48871FFF7EFFF1E4B64
:102ED0005A79510703D51B680BB10120984719484F
:102EE000D0F814315BB14FF48A71FFF7DFFF164B56
:102EF0005A79120703D51B680BB102209847114875
:102F0000D0F81C315BB14FF48E71FFF7CFFF0E4B41
:102F1000587910F0100002D11B6803B19847094896
:102F2000D0F8043163B14FF48271FFF7BFFF064B55
:102F300001221A711B681BB1BDE81040032018471D
:102F400010BD00BF00C00140F811002000F180401A
:102F500000F5E040002382B0036003680193019B09
:102F600002B07047F0B5504B504C1B6885B0002B39
:102F70003DD04FF4827094F82E20FFF7E7FF2AB37C
:102F800094F82F3013BB4A4B1B68002B33D04FF4FF
:102F90008070FFF7DBFF638B94F82D108B424FD9C5
:102FA00022895B1A9BB292B26383D31A626802EBE6
:102FB0004303404AC2F82C36C2F830164FF48270F0
:102FC000FFF7C4FF3C4B01221A6014E063680293D0
:102FD0002389ADF80C30E36800218DF8041023BB81
:102FE0002374236801A89847002384F82F3094F8AD
:102FF0002E30002BC7D1314B1B685BB14FF488706A
:10300000FFF7A4FF0023237402238DF8043001A8E6
:10301000236898472A4B1B68EBB14FF48A70FFF77F
:1030200095FF0023237405B0F0BD208B608363609F
:103030002081E160002AD4D11E4B01221A60D0E722
:10304000BCD1E368012284F82F2013B100226283EF
:10305000AFE76383B2E766694FF000470125002EB2
:10306000E1D0B6FA86F227FA02F34632920026EA57
:10307000030602F1804303F5E0431B68002BEED00A
:103080001046FFF763FFA2F58C72D30882F00402AA
:10309000C2F380028DF808308DF8045023688DF853
:1030A000092001A89847DAE70471004000120020C7
:1030B000007100400070004004700040107100403A
:1030C0001471004010B50368292B044604D9074940
:1030D00040F2CD10FDF7D6FF23681F2B83BF03F00E
:1030E0001F03034823604FF0A04010BDC4BD000083
:1030F0000003005007B5019001A8FFF7E3FF019A14
:1031000001239340C0F80C3503B05DF804FB07B50C
:10311000019001A8FFF7D6FF019A01239340C0F860
:10312000083503B05DF804FB13B5144BD3F8183120
:103130000BB3134B134C00221A601B680193019BC5
:10314000236823B910494FF42770FDF79BFFE07FF8
:10315000FF2803D0A37F5BB1FFF7CCFF0023637789
:103160002372D4E90031094802B0BDE81040184785
:10317000FFF7CDFFF2E702B010BD00BF0030024004
:103180001831024030120020E8CF00003812002031
:103190002DE9F743002406460F4600F5A0754FF4CD
:1031A0008038A1462B688BB1D6F8043308FA04F2B4
:1031B0001A420BD0C5F800902B680193019BA30025
:1031C00003F5A07398B2D7E9003198470134042C75
:1031D00005F10405E6D103B0BDE8F08301490248DA
:1031E000FFF7D6BF5412002000800040014902487A
:1031F000FFF7CEBF60120020009000400023435034
:1032000082B043580193019B02B070470B7B032BA4
:103210002DD8DFE803F025291D028A68154B9A4254
:1032200004D1D0F84C350A699A4209D18A6840F233
:1032300002239A421BD1D0F84C354A699A4216D0E3
:1032400000230622C0F80035C0F800251846704754
:10325000D0F84C350A699A42F2D1D0F83C35ECE707
:10326000D0F84C350A69E9E7D0F83C35FAE7012097
:10327000704700BF0002040010B50368292B044604
:1032800004D9074940F2CD10FDF7FCFE23681F2B3F
:1032900083BF03F01F03034823604FF0A04010BD1D
:1032A000C4BD000000030050F0B50B6887B00446B1
:1032B0000D4623B9484940F28620FDF7E3FED4F8D5
:1032C0002431B3B14FF492712046FFF797FFD4F841
:1032D000043173B9AB68C4F808330223AB60AB6840
:1032E000C4F8043301232362636185F82E3007B0EC
:1032F000F0BDD4F804316BB34FF48271204605F170
:103300000C07FFF77BFF0FCF01AE0FC63B683360A2
:1033100095F82E303BB929462046FFF777FF80F01D
:10332000010085F82E004FF4B0712046FFF766FFCC
:103330004FF4AE71FFF762FF95F8303013B195F896
:103340002E30CBB10023C4F80032AB60234BC4F85D
:10335000083311E04FF4A4712046FFF74FFF2B7B99
:10336000EBB905F10C070FCF01AE0FC63B68336018
:1033700095F83030002BE6D0D4F8C434C4F8C43407
:103380009A071ED501238DF8003095F830300BB91F
:1033900085F82F30D5E9003168469847A7E74FF404
:1033A0000073C4F8003240F20223AB6003F1CE7325
:1033B000C4F80833AB68C4F804330123A360236264
:1033C00095E713F0050F01D00223DCE795F82E30C6
:1033D000002BD8D00423D6E73FD0000002029C0186
:1033E00001490248FFF760BF6C1200200030004026
:1033F00002494FF04020FFF757BF00BFA012002046
:103400002DE9F04F85B08146934601930C4619B9DA
:103410004649E220FDF736FED4E900239A4203D163
:103420004249E320FDF72EFE99F80480404F3423F3
:1034300003FB08FA07EB0A0696F82D20002A71D143
:103440003C4AD9F8000052F82810FFF7F9FC05466D
:10345000002869D1019B47F80AB07360B06086F814
:10346000300086F82F00627B86F8322022680392B3
:1034700003A8FFF701FF039A02F5E07240F20C6621
:1034800040F8226003A862680392FFF7F5FE039AF2
:1034900002F5E07240F82260D4E90010D9F800206B
:1034A00057F80A30C2F80815C2F80C05A168C2F82E
:1034B00024156BB3247BD9F80060072C4FEA163A29
:1034C00046F3073603D91C496B20FDF7DBFD002EC0
:1034D000AEBF06F16043194B0AF00F0A4FEA4414DD
:1034E000A8BF03F56143E4B2B4BF03F80A4083F810
:1034F0000043D9F800301A0B43F30733002B07DBE6
:1035000002F01F0101228A405B090D4941F8232086
:10351000342303FB0877012387F82D30284605B0B4
:10352000BDE8F08F0825F9E71125F7E73FD0000047
:103530006C120020D4D000008BD0000014ED00E00D
:1035400000E100E070B50D4D0479342202FB045215
:10355000064692F82D20012A04D009494FF4A5709F
:10356000FDF790FD33680622C3F80025342303FBE2
:103570000454022384F82D3070BD00BF6C1200206B
:103580003FD0000070B5114D0479342202FB045283
:10359000064692F82D2022B90D4940F25510FDF74C
:1035A00071FD3422336802FB04540021094AA160F2
:1035B000C3F80823D3F8002222F4BC52C3F8002237
:1035C000C3F80015012384F82D3070BD6C12002063
:1035D0003FD0000002029C01F7B5294E0579342343
:1035E00003FB0563044693F82D3023B9254940F2C7
:1035F0003110FDF747FD34236B43F35893B1236833
:103600001A0B43F30733002B0CDB02F01F015B099D
:1036100001228A4020331C4941F82320BFF34F8FF9
:10362000BFF36F8F2046FFF7ADFF2068FFF72AFC3E
:10363000342303FB056393F83230C3B9236801A830
:10364000D3F808350193FFF717FE019B03F5E073EC
:10365000022740F82370236801A8D3F80C350193A2
:10366000FFF70AFE019B03F5E07340F82370342353
:1036700003FB0565002385F82D3003B0F0BD00BFC6
:103680006C1200203FD0000000E100E02DE9F8437B
:103690000379012B04460D46904607D84B68B3F5D5
:1036A000803F03D28B68B3F5803F04D3BF4940F21B
:1036B0002F20FDF7E7FC94F80490BD4E342707FB5C
:1036C00009F7F3599BB92B78022B08D02B78032BE1
:1036D0000DD1B6494FF40E70FDF7D4FC07E0B349A5
:1036E00040F23720FDF7CEFCF359002BEED0342703
:1036F00007FB09670023246887F82E30EB6803F086
:103700006043B3F1005F03D010273846BDE8F8836B
:10371000A84BC4F8083397F82F3023B1BB68C4F81E
:1037200004331127F1E718F0140F0CBF0123002315
:1037300087F82F30AE46BEE80F0007F10C0CACE85E
:103740000F00DEF80030CCF80030C8F3001387F823
:1037500030306B78C4F888354FF482712046FFF71B
:103760004DFD4FF49271FFF749FD18F0010318BFAA
:103770000123C4F8503518F0020318BF0123C4F820
:1037800040352B78032B00F2E780DFE803F0A7CF6A
:10379000880218F0100F04D0844940F2AB10FDF7F6
:1037A00071FC18F0080F04D080494FF4D670FDF773
:1037B00069FC18F0040F04D07C4940F2AD10FDF70D
:1037C00061FC2B6903F06043B3F1005F9CD14FF4BF
:1037D0008073C4F800326B68EA68C4F84425204658
:1037E000C4F848354FF4A871FFF708FD4FF4B071E5
:1037F000FFF704FD4FF4A471FFF700FD01232362DE
:10380000A360D4F85031002BFBD04FF4A8712046B0
:10381000FFF7F4FCAB682A69C4F84425C4F84835BE
:10382000342303FB0963644A9A604FF482730822CD
:10383000002718F0080F04D1297803291CBF0121A3
:10384000A150342202FB09F2B118B258002A40F00C
:103850008880012223441968002900F08F803421D8
:10386000D4F8C434C4F8C43401FB0962002082F8DF
:103870002F00002B00F0918013F0010F14BF4FF4C4
:103880000247032748F2012213F0020F18BF174620
:1038900013F0040F48F2022318BF1F4635E76B6888
:1038A000EA68C4F84425C4F848352B6903F060423F
:1038B000B2F1005F7FF428AFAA68C4F834354FF442
:1038C0008453C4F83825C4F80032342303FB096359
:1038D00040F202229A6001232362A6E76B68EA683D
:1038E000C4F8442518F0200FC4F848354FF03403CD
:1038F00010D003FB09634FF48072C4F800222E4AF3
:103900009A604FF4A471FFF779FC4FF4A47301227D
:1039100022628CE74FF4007203FB0963C4F80022B3
:1039200040F202229A604FF48273F0E76B68EA6813
:10393000C4F83425C4F838354FF48053C4F8003245
:10394000342303FB096340F202229A6001232362BD
:1039500000224FF482736BE74FF48273082207272B
:1039600067E718F0040F1CBF4FF400738B6034231B
:1039700003FB0966B368C4F80433C6E6D4F824111F
:1039800000293FF468AF4FF492712046FFF736FCF0
:103990004FF48273226262615CE709FB0161204699
:1039A000FFF734FC002808BF0327AEE63FD0000035
:1039B0006C12002002029C0100020400002343500C
:1039C00082B043580193019B02B070470A4610B57C
:1039D0004FF48E71FFF7F2FF136A9168C95C136AA6
:1039E00001331362C0F81C1510BD000010B5036848
:1039F000292B044604D9074940F2CD10FDF742FBBC
:103A000023681F2B83BF03F01F03034823604FF07D
:103A1000A04010BDC4BD00000003005007B50190D8
:103A200001A8FFF7E3FF019B03F5E073022240F8D2
:103A3000232003B05DF804FB08B502464FF49271F1
:103A40000068FFF7BBFF4FF484711068FFF7B6FF03
:103A5000136801221A6008BD10B58B690A464FF43D
:103A6000847123B9FFF7AAFFD0F8183510BDFFF70E
:103A7000A5FF536AD168D0F81805C854536A0133BA
:103A80005362F3E71FB501238DF80030044BCDE9F5
:103A90000110D3E900126846904705B05DF804FBB9
:103AA000D412002030B54C48D0F8043313F4007F12
:103AB00085B005464DD0D0F82431002B49D04FF4C5
:103AC0009271FFF77BFF4FF40173C0F80833434B4B
:103AD00093F829200AB9012242603F4902228DF859
:103AE0000020D1F88024C1F8802403929A690292C0
:103AF000DA6801920022C3E906226846D3E900127F
:103B000090473548D0F81C315BB134494A690B6A9B
:103B10009A420A464BD991F82830002B47D1FFF73B
:103B200055FF2D48D0F844318BB14FF4A271FFF707
:103B300045FF2A4B93F829200AB1012202609A69B5
:103B40002AB10022586AD9689A61FFF79BFF05B035
:103B500030BDD5F804335B07D3D5D5F80831002B39
:103B6000CFD01E4C1C482146FFF776FF636AA2693E
:103B70009A422346C5D1E26952B12369E168E36004
:103B80000023606AA261E3616362FFF77BFFB8E72D
:103B900094F829200AB901226A600F4A4FF4017192
:103BA000C2F808130022586AD9689A61EDE70A48FA
:103BB0004FF48E71FFF702FF5369002BB1D05169AA
:103BC0000291002391688DF800300191536168469D
:103BD000D2E900139847A4E700200040D412002047
:103BE0002DE9F347054691460C4619B96E49AA20BE
:103BF000FDF748FA6D4B2E792C2202FB06329846CF
:103C000092F82A20002A40F0CA8069492868FFF704
:103C100017F90746002840F0C48023685A1C14D0C6
:103C200001A80193FFF7E2FE019B012202FA03F3D0
:103C3000C0F808352368019301A8FFF7D7FE019B60
:103C400003F5E073032240F823206368581C09D071
:103C500001A80193FFF7CAFE019B03F5E073002260
:103C600040F823202B68A269C3F82425217D637DB9
:103C70002A680B43C2F86C35D4E900122B68C3F8EC
:103C80001425C3F80C15237D012B2BD1A368591CD7
:103C900009D001A80193FFF7A9FE019B03F5E0738A
:103CA000002240F82320E3685A1C14D001A8019395
:103CB000FFF79CFE019B012202FA03F3C0F80835CE
:103CC000E368019301A8FFF791FE019B03F5E07300
:103CD000032240F82320D4E902122B68C3F80825F8
:103CE000C3F810152C23734308EB0302C2F80490A9
:103CF000226948F80320B9F1000F3CD0286894F8F5
:103D00001C904FF48E71FFF759FE28684FF4A27192
:103D1000FFF754FE2B68274AC3F804232C68B9F137
:103D2000070F4FEA143A44F3073403D922496B20B2
:103D3000FDF7A8F9002CAEBF04F160421F4B0AF05A
:103D40000F0A4FEA4919A8BF02F561425FFA89F9E3
:103D5000B4BF03F80A9082F800932B681A0B43F360
:103D60000733002B07DB02F01F0101228A405B09A9
:103D7000134941F823202B680422C3F800252C2383
:103D800003FB06830022C3E9062283F829205A6137
:103D9000012283F82A20384602B0BDE8F0870827C0
:103DA000F9E71127F7E700BFDCD00000D4120020AC
:103DB000A53A0000800002008BD0000014ED00E066
:103DC00000E100E02DE9F843036805792A4E00225E
:103DD000C3F800252C2303FB056304465B68B3B1DD
:103DE0000368264AC3F8082303681A0B43F3073312
:103DF000002B0CDB02F01F015B0901228A402033FB
:103E00001F4941F82320BFF34F8FBFF36F8F236803
:103E10004FF0FF32D3F80C05D3F81495D3F808759A
:103E2000D3F81085C3F81425C3F80C2523689042F5
:103E3000C3F80825C3F8102501D0FFF7EFFDB9F14D
:103E4000FF3F02D04846FFF7E9FDB8F1FF3F02D03F
:103E50004046FFF7E3FD7B1C02D03846FFF7DEFD4E
:103E60002068FFF70FF82C2303FB0565002385F876
:103E70002A306B60BDE8F883D4120020840202006F
:103E800000E100E02DE9F84F344E077991462C22ED
:103E900002FB0762054692F82A20012A884604D0D0
:103EA0002F494FF48C70FDF7EDF8B8F1000F04D1F5
:103EB0002B4940F21910FDF7E5F8B9F1000F04D1D4
:103EC00027494FF48D70FDF7DDF82B792C2404FB86
:103ED0000363D3F814B0BBF1000F3CD107FB046AB5
:103EE0004FF48E71CAF81490CAF80880CAF820B04E
:103EF0008AF828B02868FFF761FD2B6801229A60D4
:103F000028685146FFF762FDDAF8043054468BB951
:103F10002868DAF81480236A984511D82B68D3F8FA
:103F20001C21002AFBD00122DA602C2303FB07634B
:103F300000225A615846BDE8F88F94F828303BB902
:103F4000D0F81C31002BF8D05146FFF73FFDE2E7D7
:103F50004FF00F0BE9E74FF0110BEBE7D412002005
:103F6000DCD000002DE9F843484F05792C2303FBF2
:103F70000573064693F82A30012B8846144604D070
:103F800043494FF4B670FDF77DF8B8F1000F04D146
:103F90003F4940F26D10FDF775F824B93C494FF4E4
:103FA000B770FDF76FF82C2303FB05735A6822B135
:103FB00033684FF40171C3F808132C2303FB057316
:103FC000986950B1D96900293FD022B133684FF4C4
:103FD0000172C3F80423112434E09C61C3F80C80FF
:103FE0005862D8612C2303FB057393F829301BB961
:103FF00010B93046FFF720FD4FF02C0909FB05787A
:104000003068D8F80430002B35D14FF4A271C14686
:10401000FFF7D4FC3068D0F82431D0F80821D0F86C
:104020004441BAB90CB9002BF4D02C2202FB05751F
:104030000022AA612BBB34BB95F8291033680122FA
:10404000B9B11A602046BDE8F883C3F81080DC617E
:104050000120C7E7002BE8D1002CE6D14946FFF745
:10406000FBFCD8F82430D8F818209A42D2D823463E
:10407000DBE75A60E6E74FF40173C0F8043300242D
:10408000E0E70324DEE70F24DCE700BFD4120020C2
:10409000DCD000000023435082B043580193019BC1
:1040A00002B0704710B50368292B044604D90749AC
:1040B00040F2CD10FCF7E6FF23681F2B83BF03F00F
:1040C0001F03034823604FF0A04010BDC4BD000093
:1040D0000003005007B5019001A8FFF7E3FF019B23
:1040E00003F5E073022240F8232003B05DF804FBDF
:1040F0001FB501238DF80030044BCDE90110D3E941
:1041000000126846904705B05DF804FB00130020DC
:104110007FB5434AD2F82461002E60D010464FF498
:104120009271FFF7B7FF02238DF80030D2F8803488
:10413000C2F880340393D2F83C350293394BDA68E5
:1041400001920022C3E906226846D3E90012904793
:104150003348D0F8443173B14FF4A271FFF79AFF9E
:10416000304B9A693AB10022C3E90622D968D0F8E7
:104170003C05FFF7BDFF2A48D0F82031ABB14FF422
:104180009071FFF787FF0123C360264B5A6962B124
:10419000D0F84C150291002299688DF80020019109
:1041A0005A616846D3E9001290471D48D0F858314B
:1041B0009BB14FF4AC71FFF76DFF1A4B5A6962B1B6
:1041C000D0F84C150291002299688DF800200191D9
:1041D0005A616846D3E90012904704B070BDD2F826
:1041E0001031002BB4D04FF488711046FFF752FF06
:1041F0000C4BD2F83C0599698842A9D1DC69D96891
:1042000064B1D2F8005225F02005C2F800521A69B4
:104210009C61DA60DE61FFF76BFF99E79C61FAE76A
:1042200000200040001300202DE9F3470546914689
:104230000C4619B97349CF20FCF724FF724B2E7935
:10424000242202FB0632984692F82020002A40F0F1
:10425000D5806E492868FEF7F3FD0746002840F038
:10426000CF8023685A1C13D001A80193FFF71AFFCF
:10427000019A01239340C0F808352368019301A8EF
:10428000FFF710FF019B03F5E073032240F82320A2
:104290006368581C09D001A80193FFF703FF019B35
:1042A00003F5E073002240F823202B68A269C3F8CD
:1042B0002425217D637D2A680B43C2F86C35D4E93F
:1042C00000122B68C3F80C15C3F81425237D012BAD
:1042D0002AD1A368591C09D001A80193FFF7E2FE77
:1042E000019B03F5E073002240F82320E3685A1C89
:1042F00013D001A80193FFF7D5FE019A0123934043
:10430000C0F80835E368019301A8FFF7CBFE019BD5
:1043100003F5E073032240F82320D4E902212B683F
:10432000C3F80815C3F810252423734308EB0302D0
:10433000C2F80490226948F80320B9F1000F4BD06D
:10434000286894F81C904FF48871FFF7A3FE286842
:104350004FF49071FFF79EFE28684FF49271FFF7BB
:1043600099FE28684FF4A271FFF794FE28684FF475
:10437000AC71FFF78FFE2B68254AC3F804232C6825
:10438000B9F1070F4FEA143A44F3073403D921492E
:104390006B20FCF777FE002CAEBF04F160431E4B90
:1043A0000AF00F0A4FEA4919A8BF03F561435FFA03
:1043B00089F9B4BF03F80A9083F800932B681A0BAD
:1043C00043F30733002B07DB02F01F0101228A4071
:1043D0005B09124941F823202B680822C3F8002505
:1043E000242303FB06830022C3E906225A6101222B
:1043F00083F82020384602B0BDE8F0870827F9E7A7
:104400001127F7E72DD10000001300201141000013
:10441000100342008BD0000014ED00E000E100E04A
:104420002DE9F843364E0579242303FB0563044642
:104430005B68B3B10368334AC3F8082303681A0BF7
:1044400043F30733002B0CDB02F01F015B09012251
:104450008A4020332C4941F82320BFF34F8FBFF30C
:104460006F8F2268D2F8003223F02003C2F80032A6
:10447000236801225A6020684FF4AC71FFF70AFEEE
:104480002368DA602368D3F85821002AFBD0002281
:10449000C3F8002523684FF0FF32D3F80C05D3F89A
:1044A0001495D3F80875D3F81085C3F80C25C3F814
:1044B000142523689042C3F80825C3F8102501D0BD
:1044C000FFF708FEB9F1FF3F02D04846FFF702FEB2
:1044D000B8F1FF3F02D04046FFF7FCFD7B1C02D045
:1044E0003846FFF7F7FD2068FEF7CCFC242303FBDA
:1044F0000565002385F820306B60BDE8F88300BFB8
:10450000001300201003420000E100E02DE9F04715
:10451000394F90F80480242303FB0873044693F872
:104520002030012B8946924604D0344940F22D10A8
:10453000FCF7A8FDB9F1000F04D130494FF4977092
:10454000FCF7A0FDBAF1000F04D12C4940F22F1066
:10455000FCF798FD237913B9BAF5803F04D32749B6
:104560004FF49870FCF78EFD09F06043B3F1005FE3
:104570003DD12379242606FB03735D69002D38D1D4
:1045800006FB08764FF49071C6F814A0C6F80890A0
:104590002068FFF77FFD4FF4AC712068FFF77AFDCC
:1045A00023687269B168C3F84415C3F848252368C5
:1045B00001229A607368BBB92368D3F82021D3F82D
:1045C00058511AB9002DF8D00F2508E0002DFBD165
:1045D0000122DA602268D2F85831002BFBD0242364
:1045E00003FB087700237B612846BDE8F087102590
:1045F000FAE71125F8E700BF001300202DD10000D5
:104600002DE9F041484E0579242303FB0563044658
:1046100093F82030012B8846174604D043494FF4C5
:10462000C070FCF72FFDB8F1000F04D13F4940F2F4
:104630008110FCF727FD27B93C494FF4C170FCF706
:1046400021FD237913B9B7F5803F04D3374940F2F0
:104650008310FCF717FD08F06043B3F1005F61D1F0
:10466000242303FB0563596821B123684FF40472C6
:10467000C3F80823242303FB05639A6952B1DA695E
:10468000002A3DD021B123684FF40472C3F80423FB
:10469000112033E09F61C3F80C80DA6120684FF489
:1046A0008871FFF7F7FC20684FF4A271FFF7F2FC66
:1046B0002368C3F83485C3F8387523682ABB012200
:1046C0001A6021792368242202FB016252681ABB16
:1046D000D3F81041D3F84421D3F82401144302D174
:1046E0000028F5D02246242303FB016600239842CC
:1046F00018BF03209A42B36118BF0F20BDE8F081B4
:10470000C3F81080DF610122C8E7D3F8002242F02D
:104710002002C3F80022D4E74FF40472C3F8042344
:104720000020EBE71020E9E7001300202DD1000066
:10473000054B1B680D2B01BF044B1868B0FA80F0C5
:10474000400918BF002070473001001034010010EC
:1047500008B5FFF7EDFF40B14FF080430022C3F8EA
:104760000C21C3F81021C3F83825FFF7E1FF00281A
:1047700046D04FF080524D4BD2F80414C3F82015A8
:10478000D2F80814C3F82415D2F80C14C3F828156D
:10479000D2F81014C3F82C15D2F81414C3F830153D
:1047A000D2F81814C3F83415D2F81C14C3F8401505
:1047B000D2F82014C3F84415D2F82414C3F84815CD
:1047C000D2F82814C3F84C15D2F82C14C3F850159D
:1047D000D2F83014C3F85415D2F83414C3F8601565
:1047E000D2F83814C3F86415D2F83C14C3F868152D
:1047F000D2F84014C3F86C15D2F84424C3F87025DD
:10480000FFF796FF48B14FF08043D3F80024D2075A
:1048100044BF6FF00102C3F80024254AD2F8883063
:1048200043F47003C2F88830BFF34F8FBFF36F8F2C
:104830004FF01023D3F80022002A03DBD3F8043210
:10484000002B2FDA1B4B0122C3F80425D3F80024D8
:10485000002AFBD04FF010221221C2F80012D3F828
:104860000024002AFBD04FF010231222C3F80422A8
:10487000104B1A46D3F800140029FBD00021C3F8CE
:104880000415D2F80034002BFBD0BFF34F8F08493A
:10489000094BCA6802F4E0621343CB60BFF34F8F49
:1048A00000BFFDE7054B064A1A6008BD00C0004086
:1048B00000ED00E000E001400400FA052C000020BB
:1048C0000090D0030649074A074B9B1A03DD043BBF
:1048D000C858D050FBDCFFF73BFFFBF7B5FC0000EE
:1048E00030D6000000000020F0090020FEE7FEE7BF
:1048F000FEE7FEE7FEE7FEE7FEE7FEE7FEE7FEE790
:1049000008B50021044602F06FF9044B1868C36B28
:1049100003B19847204606F037FC00BF84D2000060
:10492000024B1868416803F0E7BC00BF300000206C
:1049300070B50D4E0D4D761BB61006D0002455F8FF
:10494000043B01349847A642F9D1094E094D761B24
:1049500007F02CFAB61006D0002455F8043B0134B9
:104960009847A642F9D170BDE0090020E009002077
:10497000EC090020E0090020032A70B412D940EAB3
:104980000105AD0704460B461ED11946204653F8D3
:10499000045B54F8046BAE4216D1043A032A204655
:1049A0001946F2D8561EA2B10139441E01E0C318BF
:1049B0000CD014F8015F11F8012F9542A6EB040307
:1049C000F5D0A81A70BC7047561EEDE7184670BCAB
:1049D00070471046F6E700BF844641EA000313F033
:1049E00003036DD1403A41D351F8043B40F8043BF6
:1049F00051F8043B40F8043B51F8043B40F8043BB9
:104A000051F8043B40F8043B51F8043B40F8043BA8
:104A100051F8043B40F8043B51F8043B40F8043B98
:104A200051F8043B40F8043B51F8043B40F8043B88
:104A300051F8043B40F8043B51F8043B40F8043B78
:104A400051F8043B40F8043B51F8043B40F8043B68
:104A500051F8043B40F8043B51F8043B40F8043B58
:104A600051F8043B40F8043B403ABDD2303211D3F8
:104A700051F8043B40F8043B51F8043B40F8043B38
:104A800051F8043B40F8043B51F8043B40F8043B28
:104A9000103AEDD20C3205D351F8043B40F8043BF8
:104AA000043AF9D2043208D0D2071CBF11F8013BF6
:104AB00000F8013B01D30B8803806046704700BFBC
:104AC000082A13D38B078DD010F003038AD0C3F1CB
:104AD0000403D21ADB071CBF11F8013B00F8013BAD
:104AE00080D331F8023B20F8023B7BE7043AD9D36C
:104AF000013A11F8013B00F8013BF9D20B78037041
:104B00004B7843708B78837060467047F0B48607AB
:104B100046D0541E002A3CD0CAB2034601E0013CF4
:104B200037D303F8012B9D07F9D1032C2AD9CDB235
:104B300045EA05250F2C45EA054534D9A4F11002B4
:104B400022F00F0C03F120071609674403F110024D
:104B500042E9045542E902551032BA42F8D1721CBA
:104B600014F00C0F03EB021204F00F0613D0331FE6
:104B700023F003030433134442F8045B9342FBD154
:104B800006F003042CB1CAB21C4403F8012B9C426A
:104B9000FBD1F0BC704734461346002CF3D1F8E744
:104BA00014460346C1E71A462646E0E70FB400B5AF
:104BB000074983B004AB086853F8042B816801935C
:104BC00000F06EF903B05DF804EB04B0704700BF6D
:104BD00030000020034B1B6801469A68184604F019
:104BE000E9BA00BF3000002000290CBF02220022D9
:104BF0004FF4806300F000B82DE9F043654CD4F821
:104C0000009083B004460F4690461E46B9F1000F4F
:104C100003D0D9F83830002B79D0B8F1020F06D084
:104C2000B8F1010F00F2A480002EC0F2A180636EE3
:104C3000D90752D52146484603F00CF9216B41B102
:104C400004F14003994202D0484603F00DFA0023D4
:104C50002363B4F90C500023A36163602B0665D471
:104C600025F44A6525F00305B8F1020FA58164D04B
:104C700001AB6A462146484603F07AFBA3891843F4
:104C8000A081002E30D0002F2FD0D9F83830002B43
:104C900039D0009B2760B342B4F90C301CBF43F4F9
:104CA0000063A381B8F1010F04BF43F00103A381A6
:104CB0009AB213F00803C4E904762CD0D10755D575
:104CC0007642A661666E002116F00106A16027D02B
:104CD0000026304603B0BDE8F083A3899A05A9D425
:104CE000A06D03F041FBA5E7009E304603F0BAFB40
:104CF000074600283FD0A38943F08003A381D9F859
:104D00003830002BC5D1484603F012F9C1E74846B8
:104D100003F00EF981E7A360666E16F00106D7D1A5
:104D200093051CD5304603B0BDE8F08321694846A1
:104D300003F09AF9B4F90C5092E70026626E002154
:104D400004F1430345F00205A160D7074FF00101CC
:104D5000C4E90431A5812360E4D4A805E2D4A06DA0
:104D600003F004FB304603B0BDE8F083A660D3E750
:104D70004FF0FF36D6E7009DB54204D0284603F039
:104D800071FB074620B9B4F90C504FF0FF36D5E758
:104D90002E46B0E7300000200000000000000000B8
:104DA0000000000000000000000000000000000003
:104DB00000000000000000000000000000000000F3
:104DC00090F800F06DE9024520F007016FF0000C4B
:104DD00010F0070491F820F040F049804FF00004F3
:104DE0006FF00700D1E9002391F840F000F10800CE
:104DF00082FA4CF2A4FA8CF283FA4CF3A2FA8CF306
:104E00004BBBD1E9022382FA4CF200F10800A4FA6C
:104E10008CF283FA4CF3A2FA8CF3E3B9D1E90423C0
:104E200082FA4CF200F10800A4FA8CF283FA4CF3F7
:104E3000A2FA8CF37BB9D1E9062301F1200182FAB1
:104E40004CF200F10800A4FA8CF283FA4CF3A2FAB7
:104E50008CF3002BC6D0002A04BF04301A4612BAC5
:104E6000B2FA82F2FDE8024500EBD2007047D1E9C8
:104E7000002304F00305C4F100004FEAC50514F057
:104E8000040F91F840F00CFA05F562EA05021CBF28
:104E900063EA050362464FF00004A9E70000000042
:104EA0002DE9F04F2DED068BCFB01C468B461746F3
:104EB000814603F051FA0368089418461193FFF7EE
:104EC0007FFF1090B9F1000F04D0D9F83830002BD3
:104ED00000F00A82DBF86430BBF90C2013F0010FFC
:104EE00093B202D1910540F1D5869E040AD4DBF835
:104EF000641042F4005321F40051ABF80C30CBF8AD
:104F000064109BB21D0740F1CA80DBF81020002A14
:104F100000F0C58003F01A020A2A00F0CE800023B8
:104F20009FED837BCDE92333CDE91333CDE91533F1
:104F30000C931293049325AB229398463B788DED06
:104F40000E7B09EE10BA002B00F078813C4604E09D
:104F500014F8013F002B00F0C980252BF8D1E51B88
:104F600040F0C7802378002B00F068810023059370
:104F70008DF86B300293661C4FF0FF336478039317
:104F80002B254FF0200A0136A4F120035A2B00F202
:104F9000D380DFE813F07802D100D1007202D10093
:104FA000D100D1006A00D100D10010022102D1004D
:104FB0001B025802D10052025B005B005B005B00E9
:104FC0005B005B005B005B005B00D100D100D100A7
:104FD000D100D100D100D1005D01D100B301900218
:104FE0005D015D015D01D100D100D100D1008A02D7
:104FF000D100D100E902D100D100D100C101D1001E
:105000002502D100D1002108D100D100D100D1006A
:10501000D100D100D100D1005D01D100B301E70181
:105020005D015D015D01FE02E701AD01D10081027C
:10503000D1001B0317080703AD01D100C101820095
:105040001308D100D100F207D1008200A4F130038F
:10505000002216F8014B02EB820203EB4202A4F19C
:105060003003092BF5D905928EE7484603F074F911
:10507000436815931846FFF7A3FE034648461C46AF
:10508000169303F069F98268139234B1139B23B12C
:10509000139B1B78002B41F0D980347873E7594675
:1050A000484601F02FFD002841F07483BBF80C3016
:1050B00003F01A020A2A7FF432AFBBF90E20002A4D
:1050C000FFF62DAFDBF86420D20702D49E0541F134
:1050D000918123463A465946484601F0D1FC049056
:1050E00004984FB0BDEC068BBDE8F08FE51B00F0D7
:1050F000A580DDE9233201332A44072BCDE9233291
:10510000C8F80070C8F8045006DC08F10808049AD2
:1051100023782A44049226E719EE101A22AA484658
:1051200004F09AF9002841F04D840DF19408EEE75F
:1051300000000000000000000996002C7ED0002333
:105140001A464FF0010A8DF8D4408DF86B30079263
:1051500003920A920D920B92CDF818A035AF029BE4
:10516000029913F0020318BF0AF1020A11F0840B2E
:1051700005D10599A1EB0A06002E00F3D483249DE6
:1051800072B1239A013201350DF16B000121072A1A
:10519000CDE92325C8E9000100F3058408F10808DA
:1051A0006BB1239B013302351BA90222072BCDE9EA
:1051B0002335C8E9001200F3068408F10808BBF1A2
:1051C000800F00F09682039B069A9E1A002E00F331
:1051D000D882029BDE0500F13082239B069AC8F834
:1051E000007001331544072B2495C8F8042023933D
:1051F00000F32D8308F10808029B5C0705D5059B89
:10520000A3EB0A04002C00F3EC83DDE904325245E1
:10521000ACBF9B1853440493002D40F0EF82002351
:105220002393079B1BB10799484602F01DFF0DF120
:105230009408099F3B78002B7FF488AE249B19EEDD
:1052400010BA002B40F0F8870023239300F08FBCA6
:10525000089B0996073323F00703B3EC027B8DED1F
:105260000E7BDDE90E56089326F000430AEE903AD5
:105270000AEE105A5BEC1AABB84B504659464FF049
:10528000FF3206F0D9FB002840F05285B34B4FF0B7
:10529000FF325046594606F0B1FB002840F04885E1
:1052A000002200232846314606F09EFB002841F0EC
:1052B0009A819DF86B20AA4FAA4B029800214FF0CB
:1052C000030A20F0800007910290472CC8BF1F46B8
:1052D000CDF818A003910A910D910B91002A3FF48B
:1052E0003EAF0AF1010A3AE7484602F021FEF1E535
:1052F000029B347843F02003029344E6089B09960E
:1053000053F8042B8DF8D42000210A464FF0010AEF
:1053100008938DF86B101AE7089D099655F8047BE1
:1053200000268DF86B60002F00F08486039A1346E8
:10533000013300F02E873146384603F059FB0790C1
:10534000002801F0E281079B0396DA1B06923346A0
:1053500022EAE27A08959DF86B2007930A930D9351
:105360000B93BBE7029B09969D0640F1AD80089B1D
:10537000073323F007031946F1E802230891924608
:105380009B46002A73F10003C0F2AF80039B0133F8
:1053900000F0AD85029B23F080055AEA0B0340F034
:1053A000B182039B002B40F0B4820295002303934B
:1053B00006934EAFC3E0089B53F8042B0592002AD6
:1053C00080F27184059A089352420592029B3478C8
:1053D00043F004030293D6E534788DF86B50D2E5A0
:1053E000029B099643F01005AF0640F12984089B03
:1053F000073323F00703F3E802AB089301230022ED
:105400008DF86B20039A114601317DD025F0800183
:1054100002915AEA0B0140F07182002A40F0868620
:10542000002BC3D115F00103069300F06B843023E9
:105430008DF837310DF2371781E0029B347843F055
:10544000800302939FE5324612F8014B2A2C01F0AB
:10545000F182A4F13003092B164698BF002201F215
:10546000928116F8014B02EB820203EB4202A4F197
:105470003003092BF5D9039286E5029B347843F07B
:10548000010302937FE59DF86B30002B7FF405AE9E
:1054900034788DF86BA076E53478029B6C2C00F0A4
:1054A000C28543F0100302936DE5029B347843F00C
:1054B0000803029367E5029B099643F010030293E9
:1054C000029B9D063FF553AF029BD80640F1F68440
:1054D000089B53F8042B08934FEAE27B5B46002AB3
:1054E00073F100039246BFF651AF039A029DDAF1C1
:1054F000000A11464FF02D036BEB4B0B01318DF879
:105500006B304FF0010381D1012B00F0FB81022BA6
:105510004EAF73D112984FEA1A130AF00F0143EA03
:105520000B734FEA1B129A469346435C07F8013D02
:105530005AEA0B03EFD14EABDB1B02950693002317
:10554000039907930A930D930B93069B9DF86B2089
:105550008B42B8BF0B469A46C0E600BFFFFFEF7F05
:1055600088D200008CD20000029B099643F0100301
:105570000293029B990640F17783089B073323F03F
:105580000703F3E802AB0893029B23F48065002332
:1055900035E73478029B682C00F03E8543F04003E9
:1055A0000293F0E4089B099647F6300153F8042B68
:1055B000ADF86C1002990893CD4B129341F002059F
:1055C00092464FF0000B0223782418E7029B0996BD
:1055D0009E0600F1A183029BDD0600F1AD85029BD2
:1055E0005C0600F14986029B980540F1A585089B61
:1055F000049953F8042B089311701AE64FEADA0263
:1056000042EA4B724FEADB010AF007038B469246EF
:1056100030335AEA0B013A4607F8013DEED1E9076B
:1056200089D5302B87D03023023A07F8013C4EABA6
:105630009B1A02950693174681E7652C40F3138168
:10564000DDE90E010022002306F0C4F9002800F075
:105650000482239BA74AC8F80020013301350122A8
:10566000072BCDE92335C8F8042000F3418508F164
:1056700008081C9B0C9A934280F20783239B119A83
:10568000C8F80020109AC8F8042001331544072BED
:105690002495239300F3B28408F108080C9B5C1E48
:1056A000002C7FF7A9AD102C239BDFF84CB240F300
:1056B00030855F46102619EE10BA05E008F108089B
:1056C000103C102C40F3248501331035072BCDE915
:1056D0002335C8E90076F1DD22AA5946484603F091
:1056E000BBFE002840F03E82DDE923350DF1940831
:1056F000E6E7059BA3EB0A06002E7FF764AD102EAC
:10570000239ADFF8F4B129DD58462946A34619EE5D
:10571000105A1023044604E0103E102E08F1080829
:1057200018DD01321031072ACDE92321C8E90043F1
:10573000F2DD22AA2946484603F08EFE002840F0FA
:105740001082103E102EDDE923210DF194084FF058
:105750001003E6DC23460D465C469B460132354489
:10576000072ACDE92325C8F800B0C8F8046000F383
:105770003784039B069A9E1A002E08F108087FF7CB
:1057800028AD102E239ADFF870B129DD584629463E
:10579000A34619EE105A1023044604E0103E102EC2
:1057A00008F1080818DD01321031072ACDE923215C
:1057B000C8E90043F2DD22AA2946484603F04CFE20
:1057C000002840F0CE81103E102EDDE923210DF19E
:1057D00094084FF01003E6DC23460D465C469B46DA
:1057E00001323544072ACDE92325C8F800B0C8F8AE
:1057F000046000F3178208F10808EAE419EE101AB1
:1058000022AA484603F028FE00283FF408AD19EE0E
:1058100010BAA7E1239B1199C8F800101099C8F895
:10582000041001330D44072B2495239300F3D285F4
:1058300008F10808002AC0F2C7870C9A0133154402
:10584000072BCDE92335C8E900727FF7D3AC19EEF9
:10585000101A22AA484603F0FFFD0028D7D1249D44
:105860000DF19408C8E40C9B239C012B40F392811A
:10587000013401350123072CCDE92345C8F8007018
:10588000C8F8043000F3F18308F10808109B119A5E
:1058900001341D44072CCDE92345C8E9002300F35A
:1058A000F28308F108080023DDE90E01002206F06A
:1058B00091F80C9B002840F08B81013B01340137AB
:1058C0001D44072CCDE92345C8F80070C8F8043002
:1058D00000F3708108F10808149A013415441EABD6
:1058E000072CCDE92345C8E900327FF783ACAEE74A
:1058F00098D20000C8D20000DCD20000012B029D2B
:105900007FF405AEBBF1000F08BFBAF10A0F80F0BB
:10591000F6820AF1300A01238DF837A10295069329
:105920000DF237170BE6102EDDE9232129DD179341
:10593000102543460846B846274619EE104A04E0AB
:10594000103E102E03F1080316DD0132C449103059
:10595000072ACDE92320C3E90015F1DD22AA21465B
:10596000484603F079FD002840F0B483103E102E25
:10597000DDE9232025ABE8DC3C4647469846179BEB
:1059800001460132B648C8F800007518072ACDE96B
:105990002325C8F8046000F38B839DF86B2008F181
:1059A0000808FFF7EDBB19EE101A22AA4846179314
:1059B00003F052FD00287FF42AAF249D179B0DF1C0
:1059C0009408FFF7EDBB19EE101A22AA484603F01F
:1059D00043FD00287FF41BAF249D0DF19408FFF7D1
:1059E000EEBB102C239B20DD19EE107A102604E06C
:1059F000103C102C08F1080817DD0133984A1035C7
:105A0000072BCDE92335C8E90026F1DD22AA394666
:105A1000484603F021FD002840F07883103C102C0C
:105A2000DDE923350DF19408E7DC01338C4AC8F831
:105A300000202544072BCDE92335C8F804407FF723
:105A4000E4AB19EE101A22AA484603F005FD00281F
:105A50007FF4DDAE249DFFF7D8BB1C9A002A40F3EB
:105A60002681DDE90B329342A8BF1346002B1C466A
:105A70000DDD239BC8F8007001332544072B2495C6
:105A8000C8F80440239300F3D98508F108080B9B5C
:105A9000002CA8BF1B1B002B1C4600F355830B9B3F
:105AA0003B449B46029B590500F104851C9B0C9AC4
:105AB000934203DB029AD20740F1CF83239A1199D4
:105AC000C8F800101099C8F8041001320D44072AD4
:105AD0002495239200F3E98508F108080C9ABC1874
